:04000000A3EF0BF06F
:10100000003738392F3435362A3132332D23303DED
:051010002B2569000022
:10101600010E4B6E43504410D8B414EF08F016EF8F
:1010260008F036EF08F043C0D9FF44C0DAFFDF50BE
:10103600070B456E050E456023EF08F025EF08F017
:1010460036EF08F043C0D9FF44C0DAFFDF30E8329C
:10105600E832070B456E070E456434EF08F036EFAD
:1010660008F099EF08F0000E4B6EBAEF08F043C097
:10107600D9FF44C0DAFFDF30E832E832070B456EAD
:10108600010E466E452A4AEF08F0D8904636452EA0
:1010960048EF08F04650FF0A476E43C0D9FF44C0E8
:1010A600DAFFDF50070B486E4850020D150EF32489
:1010B600D96E000EF420DA6EDECF49F0DDCF4AF0AD
:1010C60049C0D9FF4AC0DAFF4750DF16BAEF08F029
:1010D60043C0D9FF44C0DAFFDF30E832E832070BFD
:1010E600456E010E466E452A7BEF08F0D8904636CF
:1010F600452E79EF08F043C0D9FF44C0DAFFDF5030
:10110600070B476E4750020D150EF324D96E000EDD
:10111600F420DA6EDECF48F0DDCF49F048C0D9FFC3
:1011260049C0DAFF4650DF12BAEF08F043C0D9FFD4
:1011360044C0DAFFDFBCA2EF08F0A5EF08F0010E0D
:10114600A6EF08F0000E456E466A4650000AD8B46F
:10115600AFEF08F036EF08F04550000AD8B43AEF82
:1011660008F0010AD8B46BEF08F036EF08F04B50E0
:101176001200010E4C6E43504410D8B4C5EF08F06F
:10118600C7EF08F0E7EF08F043C0D9FF44C0DAFF25
:10119600DF50070B466E050E4660D4EF08F0D6EF1B
:1011A60008F0E7EF08F043C0D9FF44C0DAFFDF30AC
:1011B600E832E832070B466E070E4664E5EF08F0A4
:1011C600E7EF08F04AEF09F0000E4C6E5FEF09F00A
:1011D60043C0D9FF44C0DAFFDF30E832E832070BFC
:1011E600466E010E476E462AFBEF08F0D89047364A
:1011F600462EF9EF08F04750FF0A486E43C0D9FF64
:1012060044C0DAFFDF50070B496E4950020D0B0E42
:10121600F324D96E000EF420DA6EDECF4AF0DDCF6D
:101226004BF04AC0D9FF4BC0DAFF4850DF165FEFDC
:1012360009F043C0D9FF44C0DAFFDF30E832E832B4
:10124600070B466E010E476E462A2CEF09F0D89022
:101256004736462E2AEF09F043C0D9FF44C0DAFFCD
:10126600DF50070B486E4850020D0B0EF324D96E63
:10127600000EF420DA6EDECF49F0DDCF4AF049C029
:10128600D9FF4AC0DAFF4750DF125FEF09F0455039
:10129600466E476A4750000AD8B454EF09F0E7EFA4
:1012A60008F04650000AD8B4EBEF08F0010AD8B4AB
:1012B6001CEF09F0E7EF08F04C50120086EC0BF03B
:1012C600000E536E000E526E200E4A6E000E4B6ECE
:1012D600000E4C6E410E4D6E000E4E6E50EC0BF035
:1012E600270E436E000E446E530E456E000E466E7C
:1012F60041EC0AF0260E436E000E446E520E456E09
:10130600000E466E41EC0AF0030E516E8A0E506EC8
:10131600560EE82EFED7502EFCD7512EFAD7530480
:10132600D8A498EF09F09AEF09F09CEF09F0294A42
:101336002A2A5204D8A4A2EF09F0A4EF09F0A7EFD5
:1013460009F02906D8A02A06F40E415C010E42587F
:10135600D8A0B0EF09F0B2EF09F0C9EF09F02ABE44
:10136600BDEF09F02A5008E12904D8A0BDEF09F025
:10137600BFEF09F0C9EF09F0280E436E000E446E68
:10138600010E456EBCEC08F063EF09F0280E436EC3
:10139600000E446E000E456EBCEC08F063EF09F0DB
:1013A60000EF00F0456EFFEF09F0928040EF0AF083
:1013B600928240EF0AF0928440EF0AF0928640EF64
:1013C6000AF0928A40EF0AF0968040EF0AF0968281
:1013D60040EF0AF0968440EF0AF0938440EF0AF05B
:1013E600938640EF0AF0938240EF0AF0938840EF2D
:1013F6000AF0938040EF0AF04550436E446A445029
:10140600000AD8B409EF0AF040EF0AF04350000A88
:10141600D8B4D8EF09F0010AD8B4DBEF09F0030A13
:10142600D8B4DEEF09F0010AD8B4E1EF09F0070AF3
:10143600D8B4E4EF09F0010AD8B4E7EF09F0030ADB
:10144600D8B4EAEF09F0010AD8B4EDEF09F00F0AB3
:10145600D8B4F0EF09F0010AD8B4F3EF09F0030AA3
:10146600D8B4F6EF09F0010AD8B4F9EF09F0070A83
:10147600D8B4FCEF09F040EF0AF01200010E4C6EF2
:1014860043504410D8B44AEF0AF04CEF0AF075EF17
:101496000AF045504610D8B453EF0AF055EF0AF05B
:1014A60075EF0AF043C0D9FF44C0DAFFDF50070BDF
:1014B600476E050E476062EF0AF064EF0AF075EFBB
:1014C6000AF043C0D9FF44C0DAFFDF30E832E83221
:1014D600070B476E070E476473EF0AF075EF0AF0C5
:1014E60079EF0AF0000E4C6EAAEF0AF043C0D9FF5E
:1014F60044C0DAFFDF30E832E832070B476E43C0FC
:10150600D9FF44C0DAFFDF50070B486E4850020D82
:10151600010EF324D96E000EF420DA6EDECF49F008
:10152600DDCF4AF049C0D9FF4AC0DAFFDF504B6E23
:10153600472AA0EF0AF0D8904B32472E9EEF0AF0CA
:101546004B50010B45C0D9FF46C0DAFFDF6E4C5049
:101556001200010E496E46504710D8A4B5EF0AF0A6
:10156600B7EF0AF0BBEF0AF0000E496EFEEF0AF085
:10157600C29020EE02F04650D9264750DA22DF50BC
:10158600486E484648464846C0504818C70B481853
:10159600C06E20EE03F04650D9264750DA22DF50BF
:1015A600486EC0504818F80B4818C06E20EE04F07C
:1015B6004650D9264750DA22DF50486E48464846FC
:1015C600C2504818C30B4818C26E20EE04F04650AD
:1015D600D9264750DA22DF50D5EC09F046C043F051
:1015E60047C044F0FCEC0BF046C043F047C044F063
:1015F600E8EC0BF0C2804950120043504410D8B4B6
:1016060007EF0BF009EF0BF012EF0BF04550461009
:10161600D8A410EF0BF012EF0BF014EF0BF04FEF16
:101626000BF020EE05F04350D9264450DA22DFB203
:101636001FEF0BF021EF0BF03DEF0BF0C350C4CFC3
:1016460047F0486A47C048F0476A4726000E4822D6
:10165600060E496E483448324732492E2DEF0BF0BC
:1016660045C0D9FF46C0DAFF47C0DEFF48C0DDFFF0
:101676004FEF0BF0C350C4CF47F0486A47C048F05D
:10168600476A4726000E482245C0D9FF46C0DAFF02
:1016960047C0DEFF48C0DDFF1200000E4F6E4A5005
:1016A6004B10D8B459EF0BF05BEF0BF064EF0BF077
:1016B6004D504E10D8A462EF0BF064EF0BF066EFBE
:1016C6000BF085EF0BF04AC046F04BC047F04CC01C
:1016D60048F0BCEC0BF04AC043F04BC044F00EECB3
:1016E6000CF0C2B279EF0BF07BEF0BF074EF0BF05E
:1016F6004AC043F04BC044F04DC045F04EC046F0E2
:1017060000EC0BF01200200E466E000E476EACEC9D
:101716000AF01F6E280E436E000E446E0BEC08F0A6
:101726001F6E270E436E000E446E0BEC08F01F6E04
:10173600260E436E000E446E0BEC08F01F6E120070
:10174600A80EF66E170EF76E000EF86E00EE01F09C
:1017560010EE28F00900F5CFEEFFE550E150FAE172
:1017660000EE29F01A0EEE6AE806FDE1000161EFCF
:1017760009F046504710D8A4C3EF0BF0C5EF0BF0A5
:10178600C7EF0BF0D3EF0BF048C049F04946494686
:10179600C2504918C30B4918C26E4850D5EC09F01F
:1017A6001200800F810F820F830F840F890F8A0F1B
:1017B6008B0F8C0F8D0F920F930F940F950F960F23
:1017C60001000005050002524A0220EE05F04350D2
:1017D600D9264450DA22DFB0F3EF0BF0F5EF0BF029
:1017E600F9EF0BF0C198C19AFBEF0BF0C188C18AE3
:1017F600120020EE05F04350D9264450DA22DFB21B
:1018060007EF0CF009EF0CF00CEF0CF0C09E0DEF9B
:101816000CF0C08E120043504410D8A415EF0CF003
:1018260017EF0CF019EF0CF01AEF0CF0C282120051
:020000040020DA
:08000000FFFFFFFFFFFFFFFF00
:020000040030CA
:0E000000FF071F1FFF8185FF0FC00FE00F409D
:00000001FF
